{
    "000/my_chain_id_test/Cancun/tx_type_1": {
        "_info": {
            "hash": "0x49130f37343fa73f364ed83e2a2e7146c4effa64cdb6b371f5f2bf3f2004fade",
            "fixture_format": "state_test"
        },
        "env": {
            "currentCoinbase": "0x2adc25665018aa1fe0e6bc666dac8fc2697ff9ba",
            "currentGasLimit": "0x02540be400",
            "currentNumber": "0x01",
            "currentTimestamp": "0x03e8",
            "currentRandom": "0x0000000000000000000000000000000000000000000000000000000000000000",
            "currentDifficulty": "0x00",
            "currentBaseFee": "0x07",
            "currentExcessBlobGas": "0x00"
        },
        "config": {
            "chainid": "0x01",
            "blobSchedule": {
                "Cancun": {
                    "max": "0x06",
                    "target": "0x03",
                    "baseFeeUpdateFraction": "0x32f0ed"
                }
            }
        },
        "pre": {
            "0x1000000000000000000000000000000000000000": {
                "nonce": "0x00",
                "balance": "0x00",
                "code": "0x46600155600260016000a100",
                "storage": {}
            },
            "0xa94f5374fce5edbc8e2a8697c15331677e6ebf0b": {
                "nonce": "0x00",
                "balance": "0x3635c9adc5dea00000",
                "code": "0x",
                "storage": {}
            }
        },
        "transaction": {
            "accessLists": [
                [
                    {
                        "address": "0x0000000000000000000000000000000000001234",
                        "storageKeys": [
                            "0x0000000000000000000000000000000000000000000000000000000000000000",
                            "0x0000000000000000000000000000000000000000000000000000000000000001"
                        ]
                    }
                ]
            ],
            "nonce": "0x00",
            "gasPrice": "0x0a",
            "gasLimit": [
                "0x05f5e100"
            ],
            "to": "0x1000000000000000000000000000000000000000",
            "value": [
                "0x00"
            ],
            "data": [
                "0x"
            ],
            "sender": "0xa94f5374fce5edbc8e2a8697c15331677e6ebf0b",
            "secretKey": "0x45a915e4d060149eb4365960e6a7a45f334393093061116b197e3240065ff2d8"
        },
        "post": {
            "Cancun": [
                {
                    "hash": "0x0ee52e9f67e3c0327408ba3a0b530d6832345fa94420053457e3ae147c4f2363",
                    "logs": "0x6f322afda7b9376eb43961bc85e0a097c0118bb3545c42c888830702a95b18a5",
                    "receipt": {
                        "cumulativeGasUsed": "0xc39b",
                        "logs": [
                            {
                                "address": "0x1000000000000000000000000000000000000000",
                                "data": "0x00",
                                "topics": [
                                    "0x0000000000000000000000000000000000000000000000000000000000000002"
                                ]
                            }
                        ],
                        "bloom": "0x04000000000000000000000000000000000000000000000000000000000000000000000000000000000000000000000000000000000200000000000000000000000000000000000000080000000000000000000000000000000000000000000000000000000000000000000000000000000000000000000000000000000000000000000000000000000000000000000000000000000000000000000000000000000000000000000000000100000000004000000000000000000000000000000000000000000000000000000000000000000000000000000000000000000000000000000000000000000000000000000000000000008000000000000000000000",
                        "transactionHash": "0x74db1f529be708c28edd23279649482c2174aff44ee7190929673c868d7b6bcf",
                        "rlp": "0x01f901430182c39bb9010004000000000000000000000000000000000000000000000000000000000000000000000000000000000000000000000000000000000200000000000000000000000000000000000000080000000000000000000000000000000000000000000000000000000000000000000000000000000000000000000000000000000000000000000000000000000000000000000000000000000000000000000000000000000000000000000000000100000000004000000000000000000000000000000000000000000000000000000000000000000000000000000000000000000000000000000000000000000000000000000000000000008000000000000000000000f83af838941000000000000000000000000000000000000000e1a0000000000000000000000000000000000000000000000000000000000000000200",
                        "status": true,
                        "type": "0x01"
                    },
                    "txbytes": "0x01f8bf01800a8405f5e1009410000000000000000000000000000000000000008080f85bf859940000000000000000000000000000000000001234f842a00000000000000000000000000000000000000000000000000000000000000000a0000000000000000000000000000000000000000000000000000000000000000180a07d812c52979e6d8616538f2146e9499ca59f01b8c540d7a950ec7e695020a123a02cec47a8982651456ad416578b8792e197e4f1861bcbcfb33e3f2ef75109c322",
                    "indexes": {
                        "data": 0,
                        "gas": 0,
                        "value": 0
                    },
                    "state": {
                        "0x1000000000000000000000000000000000000000": {
                            "nonce": "0x00",
                            "balance": "0x00",
                            "code": "0x46600155600260016000a100",
                            "storage": {
                                "0x01": "0x01"
                            }
                        },
                        "0x2adc25665018aa1fe0e6bc666dac8fc2697ff9ba": {
                            "balance": "0x024ad1",
                            "nonce": "0x00",
                            "code": "0x",
                            "storage": {}
                        },
                        "0xa94f5374fce5edbc8e2a8697c15331677e6ebf0b": {
                            "nonce": "0x01",
                            "balance": "0x3635c9adc5de985bf2",
                            "code": "0x",
                            "storage": {}
                        }
                    }
                }
            ]
        }
    }
}